:100A1600454E5445522050494E200050494E2043E1
:100A26004F525245435400444F4F52204F50454E6B
:0D0A360045440057524F4E472050494E0096
:080AB500060D31323334350027
:0F0997007F0F120A997F38120A997F01120A996D
:1009A600E4F513F5147F80120A997BFF7A0A79160B
:1009B6001209E5120A757FC0120A99740D2514F8FA
:1009C600E6601712080074082514F8A607120A75BF
:0D09D6000514E51470E5051380E1120925F4
:0209E30080C1D1
:090A70007F2A120AA77FE87E0329
:100A7900E4FDFCC3ED9FEC9E5015E4FBFA0BBB00B3
:0F0A8900010AEB640A4A70F50DBD00010C80E410
:010A9800223B
:0E0A99008F90C2B5C2B6D2B7120A75C2B7228C
:0E0AA7008F90D2B5C2B6D2B7120A75C2B7226E
:0609E5008B158A1689172C
:1009EB00E4F518F519AB15AA16A917851982851800
:1009FB0083120A43FF600D120AA70519E51970E56A
:0B0A0B00051880E17F107E27020A79A9
:10080000E4FFFEEF4E6003020898C2A0D2A1D2A27C
:10081000D2A320B006120A707F312220B106120A3C
:10082000707F322220B206120A707F3322D2A0C219
:10083000A1D2A2D2A320B006120A707F342220B126
:1008400006120A707F352220B206120A707F362205
:10085000D2A0D2A1C2A2D2A320B006120A707F37C2
:100860002220B106120A707F382220B206120A70C6
:100870007F3922D2A0D2A1D2A2C2A320B006120AEE
:10088000707F2A2220B106120A707F302230B20314
:08089000020803120A707F2325
:01089800223D
:10092500E50D65087050E50E6509704AE50F650A25
:100935007044E510650B703EE511650C7038120AC0
:10094500757F01120A997F81120A997BFF7A0A79CC
:10095500211209E5120A75D2B3C2B47FC1120A99F0
:100965007BFF7A0A792D1209E57F107E27120A7915
:10097500D2B3C2B480167F01120A997F80120A99F8
:100985007BFF7A0A79391209E5120A757F01120A85
:020995009922A5
:030000000208995A
:0C089900787FE4F6D8FD7581190208E0B4
:100A4300BB010CE58229F582E5833AF583E0225068
:100A530006E92582F8E622BBFE06E92582F8E222B2
:0D0A6300E58229F582E5833AF583E49322CC
:1008A500020997E493A3F8E493A34003F68001F2C9
:1008B50008DFF48029E493A3F85407240CC8C33354
:1008C500C4540F4420C8834004F456800146F6DF23
:1008D500E4800B0102040810204080900AB5E47EF4
:1008E500019360BCA3FF543F30E509541FFEE49318
:1008F500A360010ECF54C025E060A840B8E493A3DF
:10090500FAE493A3F8E493A3C8C582C8CAC583CA09
:10091500F0A3C8C582C8CAC583CADFE9DEE780BEC1
:010ABD000038
:00000001FF
